:100000000C9483000C94B4000C94B4000C94B400D1
:100010000C94B4000C94B4000C94B4000C94B40090
:100020000C94B4000C94B4000C94B4000C94B40080
:100030000C94B4000C94B4000C94B4000C94B40070
:100040000C94B4000C94B4000C94B4000C94B40060
:100050000C94B4000C94B4000C94B4000C943B02C7
:100060000C94B4000C94AF020C9485020C94B40070
:100070000C94B4000C94B4000C94B4000C94B40030
:100080000C94B4000C94B4000C94B4000C94B40020
:100090000C94B4000C94B4000C94B4000C94B40010
:1000A0000C94B4000C94B4000C94B4000C94B40000
:1000B0000C94B4000C94B4000C94B4000C94B400F0
:1000C0000C94B4000C94B4000C94B4000C94B400E0
:1000D0000C94B4000C94B4000C94B4000C94B400D0
:1000E0000C94B4000C9414010C94E3000C9499014A
:1000F0000C944C010C94F2000C9419050C94B6006D
:100100000C940601190511241FBECFEFD1E2DEBF0A
:10011000CDBF00E00CBF12E0A0E0B2E0E8E7FEE0F7
:1001200000E00BBF02C007900D92A432B107D9F7CF
:1001300023E0A4E2B2E001C01D92AA35B207E1F7C4
:1001400010E0C3E8D0E000E006C021970109802F4D
:10015000FE010E943207C238D10780E00807A9F7E4
:100160000E94E5020C943A070C940000AF92BF92F3
:10017000CF92DF92EF92FF920F931F93CF93DF9373
:100180006C017B018B01040F151FEB015E01AE18A2
:10019000BF08C017D10759F06991D601ED91FC91C4
:1001A0000190F081E02DC6011995892B79F7C501E1
:1001B000DF91CF911F910F91FF90EF90DF90CF9043
:1001C000BF90AF900895FC01538D448D252F30E0F2
:1001D000842F90E0821B930B541710F0CF96089554
:1001E00001970895FC01918D828D981761F0A28D81
:1001F000AE0FBF2FB11D5D968C91928D9F5F9F7347
:10020000928F90E008958FEF9FEF0895FC01918DFC
:10021000828D981731F0828DE80FF11D858D90E069
:1002200008958FEF9FEF0895FC01918D228D892F06
:1002300090E0805C9F4F821B91098F7399270895EE
:100240008DEB92E00E94140121E0892B09F420E05B
:10025000822F0895FC01A48DA80FB92FB11DA35AB8
:10026000BF4F2C91848D90E001968F739927848FD6
:10027000A689B7892C93A089B1898C9183708064F9
:100280008C93938D848D981306C00288F389E02D9A
:1002900080818F7D80830895EF92FF920F931F934B
:1002A000CF93DF93EC0181E0888F9B8D8C8D981329
:1002B0001AC0E889F989808185FF15C09FB7F89435
:1002C000EE89FF896083E889F98980818370806481
:1002D00080839FBF81E090E0DF91CF911F910F91CC
:1002E000FF90EF900895F62E0B8D10E00F5F1F4FDB
:1002F0000F731127E02E8C8D8E110CC00FB607FCEA
:10030000FACFE889F989808185FFF5CFCE010E9477
:100310002A01F1CFEB8DEC0FFD2FF11DE35AFF4FBA
:10032000F0829FB7F8940B8FEA89FB898081806205
:10033000CFCFCF93DF93EC01888D8823B9F0AA89C2
:10034000BB89E889F9898C9185FD03C0808186FD90
:100350000DC00FB607FCF7CF8C9185FFF2CF8081DF
:1003600085FFEDCFCE010E942A01E9CFDF91CF9129
:10037000089580E090E0892B29F00E9420018111EE
:100380000E94000080E090E0892B49F080E090E03E
:10039000892B29F00E94000081110E94000080E05A
:1003A00090E0892B49F080E090E0892B29F00E94B1
:1003B000000081110E94000080E090E0892B49F04C
:1003C00080E090E0892B29F00E94000081110C94BC
:1003D00000000895FC0101900020E9F73197AF017A
:1003E000481B590BBC018DEB92E00C94B6008F9228
:1003F0009F92AF92BF920F931F93CF93DF93CDB78E
:10040000DEB7A1970FB6F894DEBF0FBECDBF19A21D
:10041000423008F44AE08E010F5D1F4F842E912C6C
:10042000B12CA12CA50194010E941007E62FB9015F
:10043000CA01EA30F4F4E05DD801EE938D01232B7C
:10044000242B252B79F790E080E0109719F0CD014F
:100450000E94EA01A1960FB6F894DEBF0FBECDBF91
:10046000DF91CF911F910F91BF90AF909F908F9090
:100470000895E95CE1CF1F920F920FB60F921124FD
:100480002F933F938F939F93AF93BF938091B90224
:100490009091BA02A091BB02B091BC023091B80217
:1004A00023E0230F2D3758F50196A11DB11D209390
:1004B000B8028093B9029093BA02A093BB02B093A2
:1004C000BC028091B4029091B502A091B602B091A5
:1004D000B7020196A11DB11D8093B4029093B5029D
:1004E000A093B602B093B702BF91AF919F918F9145
:1004F0003F912F910F900FBE0F901F90189526E8F7
:10050000230F0296A11DB11DD2CF1F920F920FB6DD
:100510000F9211240BB60F922F933F934F935F933B
:100520006F937F938F939F93AF93BF93EF93FF93BB
:100530008DEB92E00E942A01FF91EF91BF91AF9164
:100540009F918F917F916F915F914F913F912F91EB
:100550000F900BBE0F900FBE0F901F9018951F921B
:100560000F920FB60F9211240BB60F922F938F9309
:100570009F93EF93FF93E091CD02F091CE028081A3
:10058000E091D302F091D40282FD1DC09081809150
:10059000D6028F5F8F732091D702821741F0E091CE
:1005A000D602F0E0E354FD4F958F8093D602FF9181
:1005B000EF919F918F912F910F900BBE0F900FBED7
:1005C0000F901F9018958081F2CF789484B5826047
:1005D00084BD84B5816084BD85B5826085BD85B5E7
:1005E000816085BD80916E00816080936E00109265
:1005F00081008091810082608093810080918100E0
:100600008160809381008091800081608093800070
:100610008091B10084608093B1008091B0008160CE
:100620008093B000809191008260809391008091CE
:10063000910081608093910080919000816080930F
:1006400090008091A10082608093A1008091A10020
:1006500081608093A1008091A00081608093A000C0
:10066000809121018260809321018091210181602C
:1006700080932101809120018160809320018091ED
:100680007A00846080937A0080917A0082608093FF
:100690007A0080917A00816080937A0080917A005C
:1006A000806880937A001092C100E091CD02F091B1
:1006B000CE0282E08083E091C902F091CA021082EA
:1006C000E091CB02F091CC0280E180831092D502C0
:1006D000E091D102F091D20286E08083E091CF02D6
:1006E000F091D002808180618083E091CF02F0910F
:1006F000D002808188608083E091CF02F091D002A7
:10070000808180688083E091CF02F091D002808167
:100710008F7D808381EB92E0C1E7D2E0199219923C
:10072000199219928C179D07C9F71092B102E0E354
:10073000F2E0119211921192119282E0E037F807E3
:10074000C1F71092700280E4B82E80917B00877F01
:1007500080937B00B0927C0080917A0080648093CB
:100760007A0080917A0086FDFCCFC0907800D0900E
:100770007900D092B302C092B202A090B10294E08C
:10078000A99E800111240F581D4F0D2C000CEE085E
:10079000FF08C701B6010E94E905F8016083718373
:1007A0008283938381E08A0D803109F4A8C080930D
:1007B000B10201E712E0312C812C912CA12CF8011F
:1007C00041905190619071908F01A3019201632D2E
:1007D000782D892D9A2D0E94B30587FF04C0342CF3
:1007E000852C962CA72C0C171D0749F7832D982DC7
:1007F000A92DBA2D8093240290932502A09326025E
:10080000B09327028091700294E0899FF001112437
:10081000E05DFD4F432D582D692D7A2D4083518386
:10082000628373838F5F803109F46CC080937002A0
:100830001091700200E1412C512C3201112309F476
:1008400064C0115084E0189FF0011124E05DFD4F59
:1008500020E030E040E85DE3608171818281938136
:100860000E949E069B01AC01C301B2010E94470594
:100870002B013C01015011F74092280250922902AD
:1008800060922A0270922B0240922C0250922D020A
:1008900060922E0270922F024AE0C701B601F7FE65
:1008A0000DC06DE28DEB92E00E944C016627772728
:1008B000CB016C197D098E099F094AE00E94F7015E
:1008C00082E192E00E94EA01C0902C02D0902D02B9
:1008D000E0902E02F0902F02A7019601C701B60109
:1008E0000E940B07882399F084E192E00E94EA01BC
:1008F00080E292E00E94EA010E94B90126CF1092A4
:10090000B10257CF1092700293CF1FE09BCF260108
:100910003701E89477F82FEF3FEF4FE75FE7C30128
:10092000B2010E940B0781110DC02FEF3FEF4FE77F
:100930005FE7C301B2010E94B30518161CF488E1F9
:1009400092E0D4CF2FEF3FEF4FE75FE4C701B6014E
:100950000E94990618161CF48CE192E0C7CF2FEF85
:100960003FEF4FE75FECC701B6010E94B30587FD7B
:10097000F3CF20E030E0A901C701B6010E94B30522
:1009800087FF09C06DE28DEB92E00E944C01F7FAFF
:10099000F094F7F8F0942AE037ED43EA5BE3C701FF
:1009A000B6010E9447052B013C010E94B8056B016E
:1009B0007C010E94E7059B01AC01C301B2010E94CA
:1009C00046052B013C014AE0C701B6010E94F70130
:1009D0006EE28DEB92E00E944C0120E030E040E2BC
:1009E00051E4C301B2010E949E062B013C010E940A
:1009F000B8056B01F12CE12C4AE0C701B6010E9459
:100A0000F701C701B6010E94E7059B01AC01C301D4
:100A1000B2010E94460520E030E040E251E40E942D
:100A20009E060E94B80590E080E04AE00E94F7012F
:100A30005FCFEDEBF2E01382128288EE93E0A0E04C
:100A4000B0E084839583A683B78384E092E09183AA
:100A5000808385EC90E09587848784EC90E097878D
:100A6000868780EC90E0918B808B81EC90E0938B7B
:100A7000828B82EC90E0958B848B86EC90E0978B58
:100A8000868B118E128E138E148E08955058BB27AC
:100A9000AA270E945E050C945F060E94510638F05A
:100AA0000E94580620F039F49F3F19F426F40C9464
:100AB0004E060EF4E095E7FB0C944806E92F0E94E1
:100AC000700658F3BA17620773078407950720F07A
:100AD00079F4A6F50C9492060EF4E0950B2EBA2F3D
:100AE000A02D0B01B90190010C01CA01A001112434
:100AF000FF27591B99F0593F50F4503E68F11A16E0
:100B0000F040A22F232F342F4427585FF3CF469570
:100B100037952795A795F0405395C9F77EF41F1692
:100B2000BA0B620B730B840BBAF09150A1F0FF0F5C
:100B3000BB1F661F771F881FC2F70EC0BA0F621F48
:100B4000731F841F48F4879577956795B795F79538
:100B50009E3F08F0B0CF9395880F08F09927EE0FCD
:100B60009795879508950E94240608F481E00895DA
:100B70000E94780688F09F5798F0B92F9927B751AF
:100B8000B0F0E1F0660F771F881F991F1AF0BA9531
:100B9000C9F714C0B13091F00E949206B1E00895F7
:100BA0000C949206672F782F8827B85F39F0B93FE9
:100BB000CCF3869577956795B395D9F73EF49095E4
:100BC0008095709561957F4F8F4F9F4F0895E89462
:100BD00009C097FB3EF490958095709561957F4F85
:100BE0008F4F9F4F9923A9F0F92F96E9BB27939533
:100BF000F695879577956795B795F111F8CFFAF443
:100C0000BB0F11F460FF1BC06F5F7F4F8F4F9F4F73
:100C100016C0882311F096E911C0772321F09EE8D1
:100C2000872F762F05C0662371F096E8862F70E037
:100C300060E02AF09A95660F771F881FDAF7880F11
:100C40009695879597F90895990F0008550FAA0B67
:100C5000E0E8FEEF16161706E807F907C0F01216CF
:100C60001306E407F50798F0621B730B840B950BD2
:100C700039F40A2661F0232B242B252B21F4089527
:100C80000A2609F4A140A6958FEF811D811D0895C4
:100C900097F99F6780E870E060E008959FEF80EC2F
:100CA000089500240A9416161706180609060895D2
:100CB00000240A9412161306140605060895092E38
:100CC0000394000C11F4882352F0BB0F40F4BF2BA7
:100CD00011F460FF04C06F5F7F4F8F4F9F4F0895E7
:100CE00057FD9058440F551F59F05F3F71F04795DD
:100CF000880F97FB991F61F09F3F79F087950895C2
:100D0000121613061406551FF2CF4695F1DF08C0E0
:100D1000161617061806991FF1CF869571056105FD
:100D200008940895E894BB2766277727CB0197F9A5
:100D300008950E94240608F48FEF08950E94B106DA
:100D40000C945F060E94510638F00E94580620F06D
:100D5000952311F00C9448060C944E0611240C9423
:100D600093060E94700670F3959FC1F3950F50E0B3
:100D7000551F629FF001729FBB27F00DB11D639F4D
:100D8000AA27F00DB11DAA1F649F6627B00DA11DF3
:100D9000661F829F2227B00DA11D621F739FB00D99
:100DA000A11D621F839FA00D611D221F749F332709
:100DB000A00D611D231F849F600D211D822F762FA2
:100DC0006A2F11249F5750409AF0F1F088234AF07F
:100DD000EE0FFF1FBB1F661F771F881F91505040EB
:100DE000A9F79E3F510580F00C9448060C94930699
:100DF0005F3FE4F3983ED4F3869577956795B79572
:100E0000F795E7959F5FC1F7FE2B880F911D96958B
:100E1000879597F908950E942406880B990B0895E9
:100E2000A1E21A2EAA1BBB1BFD010DC0AA1FBB1FEE
:100E3000EE1FFF1FA217B307E407F50720F0A21B60
:100E4000B30BE40BF50B661F771F881F991F1A94CD
:100E500069F760957095809590959B01AC01BD01F7
:100E6000CF010895EE0FFF1F881F8BBF0790F691EB
:080E7000E02D1994F894FFCF66
:100E7800000000004C01B600E30099011401F200E3
:100E880006012C006E616E00696E66006F76660062
:040E98000D0A00003F
:00000001FF
