:100000000C9483000C94B4000C94B4000C94B400D1
:100010000C94B4000C94B4000C94B4000C94B40090
:100020000C94B4000C94B4000C94B4000C94B40080
:100030000C94B4000C94B4000C94B4000C94B40070
:100040000C94B4000C94B4000C94B4000C94B40060
:100050000C94B4000C94B4000C94B4000C944D02B5
:100060000C94B4000C94C1020C9497020C94B4004C
:100070000C94B4000C94B4000C94B4000C94B40030
:100080000C94B4000C94B4000C94B4000C94B40020
:100090000C94B4000C94B4000C94B4000C94B40010
:1000A0000C94B4000C94B4000C94B4000C94B40000
:1000B0000C94B4000C94B4000C94B4000C94B400F0
:1000C0000C94B4000C94B4000C94B4000C94B400E0
:1000D0000C94B4000C94B4000C94B4000C94B400D0
:1000E0000C94B4000C9414010C94E3000C9499014A
:1000F0000C944C010C94F2000C94B6000C94E704A0
:100100000C940601E70411241FBECFEFD1E2DEBF3D
:10011000CDBF00E00CBF12E0A0E0B2E0E4E1FEE001
:1001200000E00BBF02C007900D92A432B107D9F7CF
:1001300023E0A4E2B2E001C01D92A639B207E1F7C4
:1001400010E0C3E8D0E000E006C021970109802F4D
:10015000FE010E940007C238D10780E00807A9F716
:100160000E94F7020C9408070C940000AF92BF9213
:10017000CF92DF92EF92FF920F931F93CF93DF9373
:100180006C017B018B01040F151FEB015E01AE18A2
:10019000BF08C017D10759F06991D601ED91FC91C4
:1001A0000190F081E02DC6011995892B79F7C501E1
:1001B000DF91CF911F910F91FF90EF90DF90CF9043
:1001C000BF90AF900895FC01538D448D252F30E0F2
:1001D000842F90E0821B930B541710F0CF96089554
:1001E00001970895FC01918D828D981761F0A28D81
:1001F000AE0FBF2FB11D5D968C91928D9F5F9F7347
:10020000928F90E008958FEF9FEF0895FC01918DFC
:10021000828D981731F0828DE80FF11D858D90E069
:1002200008958FEF9FEF0895FC01918D228D892F06
:1002300090E0805C9F4F821B91098F7399270895EE
:1002400089EF92E00E94140121E0892B09F420E05B
:10025000822F0895FC01A48DA80FB92FB11DA35AB8
:10026000BF4F2C91848D90E001968F739927848FD6
:10027000A689B7892C93A089B1898C9183708064F9
:100280008C93938D848D981306C00288F389E02D9A
:1002900080818F7D80830895EF92FF920F931F934B
:1002A000CF93DF93EC0181E0888F9B8D8C8D981329
:1002B0001AC0E889F989808185FF15C09FB7F89435
:1002C000EE89FF896083E889F98980818370806481
:1002D00080839FBF81E090E0DF91CF911F910F91CC
:1002E000FF90EF900895F62E0B8D10E00F5F1F4FDB
:1002F0000F731127E02E8C8D8E110CC00FB607FCEA
:10030000FACFE889F989808185FFF5CFCE010E9477
:100310002A01F1CFEB8DEC0FFD2FF11DE35AFF4FBA
:10032000F0829FB7F8940B8FEA89FB898081806205
:10033000CFCFCF93DF93EC01888D8823B9F0AA89C2
:10034000BB89E889F9898C9185FD03C0808186FD90
:100350000DC00FB607FCF7CF8C9185FFF2CF8081DF
:1003600085FFEDCFCE010E942A01E9CFDF91CF9129
:10037000089580E090E0892B29F00E9420018111EE
:100380000E94000080E090E0892B49F080E090E03E
:10039000892B29F00E94000081110E94000080E05A
:1003A00090E0892B49F080E090E0892B29F00E94B1
:1003B000000081110E94000080E090E0892B49F04C
:1003C00080E090E0892B29F00E94000081110C94BC
:1003D00000000895FC019C01285D3F4F119211928D
:1003E00011921192E217F307C9F7FC0110A611A6AA
:1003F00012A613A614A60895FC0101900020E9F7A7
:100400003197AF01481B590BBC0189EF92E00C9466
:10041000B6008F929F92AF92BF920F931F93CF938C
:10042000DF93CDB7DEB7A1970FB6F894DEBF0FBE4E
:10043000CDBF19A2423008F44AE08E010F5D1F4F74
:10044000842E912CB12CA12CA50194010E94DE06D2
:10045000E62FB901CA01EA30F4F4E05DD801EE9369
:100460008D01232B242B252B79F790E080E010972A
:1004700019F0CD010E94FC01A1960FB6F894DEBFE1
:100480000FBECDBFDF91CF911F910F91BF90AF9065
:100490009F908F900895E95CE1CF1F920F920FB665
:1004A0000F9211242F933F938F939F93AF93BF93FA
:1004B0008091F5029091F602A091F702B091F802B6
:1004C0003091F40223E0230F2D3758F50196A11D3A
:1004D000B11D2093F4028093F5029093F602A0934D
:1004E000F702B093F8028091F0029091F102A0918E
:1004F000F202B091F3020196A11DB11D8093F002AA
:100500009093F102A093F202B093F302BF91AF91E6
:100510009F918F913F912F910F900FBE0F901F9041
:10052000189526E8230F0296A11DB11DD2CF1F9268
:100530000F920FB60F9211240BB60F922F933F9389
:100540004F935F936F937F938F939F93AF93BF93DB
:10055000EF93FF9389EF92E00E942A01FF91EF91C0
:10056000BF91AF919F918F917F916F915F914F91CB
:100570003F912F910F900BBE0F900FBE0F901F90C9
:1005800018951F920F920FB60F9211240BB60F926F
:100590002F938F939F93EF93FF93E0910903F09133
:1005A0000A038081E0910F03F091100382FD1DC0CA
:1005B0009081809112038F5F8F73209113038217B4
:1005C00041F0E0911203F0E0E750FD4F958F8093EA
:1005D0001203FF91EF919F918F912F910F900BBE7E
:1005E0000F900FBE0F901F9018958081F2CF7894D6
:1005F00084B5826084BD84B5816084BD85B5826028
:1006000085BD85B5816085BD80916E0081608093D8
:100610006E00109281008091810082608093810041
:100620008091810081608093810080918000816051
:10063000809380008091B10084608093B1008091AC
:10064000B00081608093B0008091910082608093BF
:100650009100809191008160809391008091900041
:100660008160809390008091A10082608093A100BE
:100670008091A10081608093A1008091A0008160A1
:100680008093A0008091210182608093210180915C
:1006900021018160809321018091200181608093FC
:1006A000200180917A00846080937A0080917A00A2
:1006B000826080937A0080917A00816080937A00D2
:1006C00080917A00806880937A001092C1008EE752
:1006D00092E00E94EA0181E592E00E94EA0184E250
:1006E00092E00E94EA01CBEAD2E0199219921992A3
:1006F000199282E0CB3ED807C1F71092EB0210921C
:10070000EC021092ED021092EE021092EF02E091D4
:100710000903F0910A0382E08083E0910503F091E0
:1007200006031082E0910703F091080380E18083C3
:1007300010921103E0910D03F0910E0386E0808387
:10074000E0910B03F0910C03808180618083E09144
:100750000B03F0910C03808188608083E0910B0390
:10076000F0910C03808180688083E0910B03F0910D
:100770000C0380818F7D808380E4682E80917B00D4
:10078000877F80937B0060927C0080917A008064F8
:1007900080937A0080917A0086FDFCCFC09078002B
:1007A000D0907900B090EB02E4E0BE9E800111246D
:1007B00005551D4F0D2C000CEE08FF08C701B601B2
:1007C0000E94B705F801608371838283938381E07F
:1007D0008B0D803109F466C08093EB021092EC021D
:1007E0001092ED021092EE021092EF020BEA12E06C
:1007F000312C412C512C712CF80181909190A190B9
:10080000B1908F01A5019401632D742D852D972D35
:100810000E94810587FF04C0382C492C5A2C7B2C60
:10082000C017D10749F7832D942DA52DB72D80939F
:10083000EC029093ED02A093EE02B093EF024AE037
:10084000C701B601F7FE0DC06DE289EF92E00E948C
:100850004C0166277727CB016C197D098E099F090A
:100860004AE00E94090282E192E00E94FC01C090ED
:10087000EC02D090ED02E090EE02F090EF02A701C2
:100880009601C701B6010E94D906882371F084E160
:1008900092E00E94FC0180E292E00E94FC010E9432
:1008A000B9016CCF1092EB0299CF46015701E89441
:1008B000B7F82FEF3FEF4FE75FE7C501B4010E94A4
:1008C000D90681110DC02FEF3FEF4FE75FE7C5015C
:1008D000B4010E94810518161CF488E192E0D9CF7A
:1008E0002FEF3FEF4FE75FE4C701B6010E946706B5
:1008F00018161CF48CE192E0CCCF2FEF3FEF4FE7BE
:100900005FECC701B6010E94810587FDF3CF20E0AF
:1009100030E0A901C701B6010E94810587FF09C027
:100920006DE289EF92E00E944C01F7FAF094F7F83B
:10093000F0942AE037ED43EA5BE3C701B6010E9479
:1009400015054B015C010E9486056B017C010E942C
:10095000B5059B01AC01C501B4010E9414054B0112
:100960005C014AE0C701B6010E9409026EE289EF0C
:1009700092E00E944C0120E030E040E251E4C501E9
:10098000B4010E946C064B015C010E9486056B015C
:10099000F12CE12C4AE0C701B6010E940902C7010F
:1009A000B6010E94B5059B01AC01C501B4010E94CE
:1009B000140520E030E040E251E40E946C060E9401
:1009C000860590E080E04AE00E94090264CFE9EFEA
:1009D000F2E01382128288EE93E0A0E0B0E084831C
:1009E0009583A683B78384E092E09183808385EC2E
:1009F00090E09587848784EC90E09787868780ECE9
:100A000090E0918B808B81EC90E0938B828B82ECD9
:100A100090E0958B848B86EC90E0978B868B118E83
:100A2000128E138E148E08955058BB27AA270E9449
:100A30002C050C942D060E941F0638F00E942606F5
:100A400020F039F49F3F19F426F40C941C060EF4A0
:100A5000E095E7FB0C941606E92F0E943E0658F33A
:100A6000BA17620773078407950720F079F4A6F593
:100A70000C9460060EF4E0950B2EBA2FA02D0B01FE
:100A8000B90190010C01CA01A0011124FF27591BD3
:100A900099F0593F50F4503E68F11A16F040A22FD9
:100AA000232F342F4427585FF3CF4695379527954A
:100AB000A795F0405395C9F77EF41F16BA0B620B49
:100AC000730B840BBAF09150A1F0FF0FBB1F661F90
:100AD000771F881FC2F70EC0BA0F621F731F841FD3
:100AE00048F4879577956795B795F7959E3F08F0F9
:100AF000B0CF9395880F08F09927EE0F97958795BB
:100B000008950E94F20508F481E008950E944606C7
:100B100088F09F5798F0B92F9927B751B0F0E1F0BE
:100B2000660F771F881F991F1AF0BA95C9F714C06E
:100B3000B13091F00E946006B1E008950C94600617
:100B4000672F782F8827B85F39F0B93FCCF38695A7
:100B500077956795B395D9F73EF490958095709504
:100B600061957F4F8F4F9F4F0895E89409C097FB81
:100B70003EF490958095709561957F4F8F4F9F4F74
:100B80009923A9F0F92F96E9BB279395F6958795B8
:100B900077956795B795F111F8CFFAF4BB0F11F47B
:100BA00060FF1BC06F5F7F4F8F4F9F4F16C0882322
:100BB00011F096E911C0772321F09EE8872F762F58
:100BC00005C0662371F096E8862F70E060E02AF099
:100BD0009A95660F771F881FDAF7880F9695879585
:100BE00097F90895990F0008550FAA0BE0E8FEEF5A
:100BF00016161706E807F907C0F012161306E407E1
:100C0000F50798F0621B730B840B950B39F40A26D9
:100C100061F0232B242B252B21F408950A2609F4B7
:100C2000A140A6958FEF811D811D089597F99F67BB
:100C300080E870E060E008959FEF80EC0895002464
:100C40000A941616170618060906089500240A9431
:100C500012161306140605060895092E0394000CB7
:100C600011F4882352F0BB0F40F4BF2B11F460FF46
:100C700004C06F5F7F4F8F4F9F4F089557FD90586F
:100C8000440F551F59F05F3F71F04795880F97FB50
:100C9000991F61F09F3F79F087950895121613060A
:100CA0001406551FF2CF4695F1DF08C01616170639
:100CB0001806991FF1CF869571056105089408956E
:100CC000E894BB2766277727CB0197F908950E9400
:100CD000F20508F48FEF08950E947F060C942D060C
:100CE0000E941F0638F00E94260620F0952311F07E
:100CF0000C9416060C941C0611240C9461060E9498
:100D00003E0670F3959FC1F3950F50E0551F629F0B
:100D1000F001729FBB27F00DB11D639FAA27F00D54
:100D2000B11DAA1F649F6627B00DA11D661F829F7B
:100D30002227B00DA11D621F739FB00DA11D621F60
:100D4000839FA00D611D221F749F3327A00D611D7D
:100D5000231F849F600D211D822F762F6A2F11245F
:100D60009F5750409AF0F1F088234AF0EE0FFF1F92
:100D7000BB1F661F771F881F91505040A9F79E3FE9
:100D8000510580F00C9416060C9461065F3FE4F365
:100D9000983ED4F3869577956795B795F795E7953F
:100DA0009F5FC1F7FE2B880F911D9695879597F948
:100DB00008950E94F205880B990B0895A1E21A2E5E
:100DC000AA1BBB1BFD010DC0AA1FBB1FEE1FFF1FEF
:100DD000A217B307E407F50720F0A21BB30BE40B3F
:100DE000F50B661F771F881F991F1A9469F7609586
:100DF0007095809590959B01AC01BD01CF01089540
:100E0000EE0FFF1F881F8BBF0790F691E02D1994FE
:040E1000F894FFCF84
:100E1400000000004C01B600E30099011401F20047
:100E240006012C006E616E00696E66006F766600C6
:040E34000D0A0000A3
:00000001FF
