:100000000C944A010C947B010C947B010C947B01B1
:100010000C947B010C947B010C947B010C947B0170
:100020000C947B010C947B010C947B010C947B0160
:100030000C947B010C947B010C947B010C947B0150
:100040000C947B010C947B010C947B010C947B0140
:100050000C947B010C947B010C947B010C94D804D0
:100060000C947B010C944C050C9422050C947B01A0
:100070000C947B010C947B010C947B010C947B0110
:100080000C947B010C947B010C947B010C947B0100
:100090000C947B010C947B010C947B010C947B01F0
:1000A0000C947B010C947B010C947B010C947B01E0
:1000B0000C947B010C947B010C947B010C947B01D0
:1000C0000C947B010C947B010C947B010C947B01C0
:1000D0000C947B010C947B010C947B010C947B01B0
:1000E0000C947B010C940F070C9451070C94E701BE
:1000F0000C94F5010C9492070C949B020C9423072A
:100100000C94A6070C942D070C94C8010C94470777
:100110000C9488070C9432020C9441020C9414073E
:100120000C94CF010C9437070C9463020C94D90102
:100130000C943F070C94D5010C94C0010C94A901B8
:100140000C94E8020C94FF010C94FB010C945B07E7
:100150000C94CC010C94F1010C9465070C947E076F
:100160000C94AB070C9405020C94AE010C94DF01C7
:100170000C94E3010C94ED010C949C070C9419076A
:100180000C9455020C9474070C94C40100002100D7
:10019000240027002A002D00300033000101000058
:1001A000040107010A0100002200250028002B009D
:1001B0002E003100340002010000050108010B018E
:1001C00005050505070508080808020202020A0AD3
:1001D00008080404040401010101010101010303F1
:1001E000030303030303040707070C0C0C0C0C0C9C
:1001F0000C0C0202020206060606060606060B0B99
:100200000B0B0B0B0B0B01021020200808102040D9
:1002100010204080020102010804020101020408CA
:100220001020408080402010080402018004020158
:1002300080402010080402010804020101020408A1
:1002400010204080010204081020408000000A0BAA
:1002500002090C0D0E080703040100000000000055
:10026000000000000000000000000000000000008E
:10027000000000000000000012111000000000004B
:10028000000000000000000000000000000000006E
:100290000000AB0711241FBECFEFD1E2DEBFCDBF00
:1002A00000E00CBF12E0A0E0B2E0EEE8F4E100E014
:1002B0000BBF02C007900D92AC34B107D9F723E011
:1002C000ACE4B2E001C01D92A937B207E1F711E03A
:1002D000CAE4D1E000E006C021970109802FFE01A9
:1002E0000E943D0AC934D10780E00807A9F70E949F
:1002F00082050C94450A0C940000382FE3E8F2E0E4
:100300008491EDE3F2E02491E7EFF1E094919923F9
:1003100009F435C0882311F181508231F8F4E82FB7
:10032000F0E08827E956FE4F8F4F0C943D0AC80134
:10033000CC01A901C001C401AE01CF01D501D90191
:10034000DF01E301E701ED01F101AE01F501FB0180
:10035000FF01809180008F7780938000E92FF0E08B
:10036000EE0FFF1FEA55FE4FA591B4918FB7F89499
:10037000EC91311148C020952E232C938FBF089506
:10038000809180008F7DE8CF80918000877FE4CFCF
:1003900084B58F7784BDE2CF84B58F7DFBCF80910C
:1003A000B0008F778093B000D9CF8091B0008F7D5F
:1003B000F9CF809190008F7780939000CFCF80917C
:1003C00090008F7DF9CF80919000877FF5CF80914D
:1003D000A0008F778093A000C1CF8091A0008F7D77
:1003E000F9CF8091A000877FF5CF809120018F7792
:1003F00080932001B3CF809120018F7DF9CF809130
:100400002001877FF5CF2E2BB8CFAF92BF92CF922E
:10041000DF92EF92FF920F931F93CF93DF936C01C4
:100420007B018B01040F151FEB015E01AE18BF08A5
:10043000C017D10759F06991D601ED91FC91019057
:10044000F081E02DC6011995892B79F7C501DF915F
:10045000CF911F910F91FF90EF90DF90CF90BF90C1
:10046000AF900895FC01538D448D252F30E0842FEB
:1004700090E0821B930B541710F0CF9608950197CC
:100480000895FC01918D828D981761F0A28DAE0FB9
:10049000BF2FB11D5D968C91928D9F5F9F73928F40
:1004A00090E008958FEF9FEF0895FC01918D828D6C
:1004B000981731F0828DE80FF11D858D90E0089539
:1004C0008FEF9FEF0895FC01918D228D892F90E091
:1004D000805C9F4F821B91098F73992708958CED43
:1004E00092E00E94630221E0892B09F420E0822F30
:1004F0000895FC01A48DA80FB92FB11DA35ABF4FB9
:100500002C91848D90E001968F739927848FA68912
:10051000B7892C93A089B1898C91837080648C9366
:10052000938D848D981306C00288F389E02D808115
:100530008F7D80830895EF92FF920F931F93CF9347
:10054000DF93EC0181E0888F9B8D8C8D98131AC00E
:10055000E889F989808185FF15C09FB7F894EE89F5
:10056000FF896083E889F989808183708064808352
:100570009FBF81E090E0DF91CF911F910F91FF909D
:10058000EF900895F62E0B8D10E00F5F1F4F0F7345
:100590001127E02E8C8D8E110CC00FB607FCFACF00
:1005A000E889F989808185FFF5CFCE010E94790223
:1005B000F1CFEB8DEC0FFD2FF11DE35AFF4FF082D1
:1005C0009FB7F8940B8FEA89FB8980818062CFCF37
:1005D000CF93DF93EC01888D8823B9F0AA89BB897A
:1005E000E889F9898C9185FD03C0808186FD0DC065
:1005F0000FB607FCF7CF8C9185FFF2CF808185FF86
:10060000EDCFCE010E947902E9CFDF91CF9108951D
:1006100080E090E0892B29F00E946F0281110E94F6
:10062000000080E090E0892B49F080E090E0892B89
:1006300029F00E94000081110E94000080E090E0FB
:10064000892B49F080E090E0892B29F00E9400007E
:1006500081110E94000080E090E0892B49F080E049
:1006600090E0892B29F00E94000081110C94000079
:1006700008958F929F92AF92BF92CF92DF92EF92A6
:10068000FF921F93CF93DF93EC0188A524E0829F14
:10069000F0011124EC0FFD1F4083518362837383AB
:1006A0008F5F8A3009F441C088A719A61AA61BA635
:1006B0001CA618A580E0882E82E0982E98E2A92E2C
:1006C00092E0B92EC12CD12C7601112381F1115069
:1006D000F40161917191819191914F0124E0129FF8
:1006E000F0011124EC0FFD1F2081318142815381E3
:1006F0000E94A9099B01AC01C701B6010E94D9075C
:100700006B017C01A814B90401F7C9A6DAA6EBA60F
:10071000FCA6DF91CF911F91FF90EF90DF90CF90DB
:10072000BF90AF909F908F90089518A6BECF19E00C
:10073000CFCFFC019C01285D3F4F11921192119285
:100740001192E217F307C9F7FC0110A611A612A631
:1007500013A614A60895FC0101900020E9F7319733
:10076000AF01481B590BBC018CED92E00C940502C3
:100770008F929F92AF92BF920F931F93CF93DF936D
:10078000CDB7DEB7A1970FB6F894DEBF0FBECDBFD1
:1007900019A2423008F44AE08E010F5D1F4F842EEB
:1007A000912CB12CA12CA50194010E941B0AE62FCB
:1007B000B901CA01EA30F4F4E05DD801EE938D018D
:1007C000232B242B252B79F790E080E0109719F04C
:1007D000CD010E94AB03A1960FB6F894DEBF0FBE09
:1007E000CDBFDF91CF911F910F91BF90AF909F90A0
:1007F0008F900895E95CE1CF4F925F926F927F9264
:100800008F929F92AF92BF92CF92DF92EF92FF9220
:100810000F931F93CF936B017C01742EAC019B014E
:100820000E94160A882399F08AE392E0CF911F91E3
:100830000F91FF90EF90DF90CF90BF90AF909F907F
:100840008F907F906F905F904F900C94AB03460118
:100850005701E894B7F82FEF3FEF4FE75FE7C50187
:10086000B4010E94160A81110DC02FEF3FEF4FE730
:100870005FE7C501B4010E94450818161CF48EE319
:1008800092E0D4CF2FEF3FEF4FE75FE4C701B6010F
:100890000E94A40918161CF482E492E0C7CF2FEF3F
:1008A0003FEF4FE75FECC701B6010E94450887FDA7
:1008B000F3CF20E030E0A901C701B6010E9445084E
:1008C00010E000E087FF0AC06DE28CED92E00E942C
:1008D0009B028C01F7FAF094F7F8F094C0E060E026
:1008E00070E080E09FE37C1641F020E030E040E2E1
:1008F00051E40E944A08CF5FF6CFA70196010E94FB
:10090000D9072B013C010E94C3084B015C014AE05E
:100910000E94B8037C01E00EF11ECC23C1F1C50199
:10092000B4010E94F2089B01AC01C301B2010E9414
:10093000D8074B015C016EE28CED92E00E949B02B5
:10094000E80EF91EC15018F120E030E040E251E419
:10095000C501B4010E94A9092B013C010E94C308F2
:100960004B01B12CA12C4AE0C501B4010E94B8038F
:10097000E80EF91EC501B4010E94F2089B01AC010A
:10098000C301B2010E94D8074B015C01DBCFC70154
:10099000CF911F910F91FF90EF90DF90CF90BF907C
:1009A000AF909F908F907F906F905F904F90089541
:1009B0001F920F920FB60F9211242F933F938F9394
:1009C0009F93AF93BF938091D8029091D902A09149
:1009D000DA02B091DB023091D70223E0230F2D37EA
:1009E00058F50196A11DB11D2093D7028093D8021E
:1009F0009093D902A093DA02B093DB028091D302E4
:100A00009091D402A091D502B091D6020196A11D79
:100A1000B11D8093D3029093D402A093D502B093DA
:100A2000D602BF91AF919F918F913F912F910F90DF
:100A30000FBE0F901F90189526E8230F0296A11D58
:100A4000B11DD2CF1F920F920FB60F9211240BB689
:100A50000F922F933F934F935F936F937F938F9357
:100A60009F93AF93BF93EF93FF938CED92E00E941F
:100A70007902FF91EF91BF91AF919F918F917F91FB
:100A80006F915F914F913F912F910F900BBE0F90FF
:100A90000FBE0F901F9018951F920F920FB60F92D6
:100AA00011240BB60F922F938F939F93EF93FF9385
:100AB000E091EC02F091ED028081E091F202F09180
:100AC000F30282FD1DC090818091F5028F5F8F73CC
:100AD0002091F602821741F0E091F502F0E0E45235
:100AE000FD4F958F8093F502FF91EF919F918F912C
:100AF0002F910F900BBE0F900FBE0F901F90189567
:100B00008081F2CF789484B5826084BD84B58160A1
:100B100084BD85B5826085BD85B5816085BD8091C8
:100B20006E00816080936E00109281008091810040
:100B30008260809381008091810081608093810038
:100B4000809180008160809380008091B1008460FA
:100B50008093B1008091B00081608093B00080915B
:100B600091008260809391008091910081608093D8
:100B70009100809190008160809390008091A1000D
:100B800082608093A1008091A10081608093A10088
:100B90008091A00081608093A000809121018260FB
:100BA00080932101809121018160809321018091B6
:100BB000200181608093200180917A00846080937D
:100BC0007A0080917A00826080937A0080917A0026
:100BD000816080937A0080917A00806880937A00A7
:100BE0001092C10086EA92E00E94990389E792E0A0
:100BF0000E9499038CE492E00E949903E091EC0238
:100C0000F091ED0282E08083E091E802F091E90248
:100C10001082E091EA02F091EB0280E18083109271
:100C2000F402E091F002F091F10286E08083E0911D
:100C3000EE02F091EF02808180618083E091EE020C
:100C4000F091EF02808188608083E091EE02F09164
:100C5000EF02808180688083E091EE02F091EF02E4
:100C600080818F7D808370E4D72ECDE3D2E007EFC3
:100C700011E0E3E8EE2EE2E0FE2E80917B00877F1C
:100C800080937B00D0927C0080917A008064809376
:100C90007A0080917A0086FDFCCF80907800909059
:100CA0007900092C000CAA08BB08C501B4010E94F8
:100CB000F408AB01BC0186EA92E00E94390340913E
:100CC000CF025091D0026091D1027091D20289E797
:100CD00092E00E9439034091A2025091A3026091D8
:100CE000A4027091A5028CE492E00E9439034AE0CC
:100CF000C501B401B7FE0DC06DE28CED92E00E941B
:100D00009B0266277727CB01681979098A099B0915
:100D10004AE00E94B80386E492E00E94AB0360912F
:100D2000CF027091D0028091D1029091D20242E024
:100D30000E94FC0386E492E00E94AB036091A20251
:100D40007091A3028091A4029091A50242E00E94BA
:100D5000FC0386E492E00E94AB03609175027091FF
:100D60007602809177029091780242E00E94FC0323
:100D700088E492E00E94AB03609175027091760264
:100D800080917702909178020E94BC08AB019B0190
:100D9000FE01B490F8018491882399F090E0880FC7
:100DA000991FFC01E457FE4FA591B491FC01EA554F
:100DB000FE4F859194918FB7F8949C91B92ABC927B
:100DC0008FBF2115310531F480E00E947D010E9422
:100DD000080353CF2F3F310511F481E0F6CFF7011F
:100DE0008491EFEFE80FE23108F0B0C0F0E088271F
:100DF000E350F94F8F4F0C943D0A0F071407190762
:100E000023072D07A60737073F07470751075B074B
:100E1000650774077E07A607880792079C0784B5B5
:100E2000806884BD47BDD3CF84B5806284BD48BD92
:100E3000CECF80918000806880938000509389009D
:100E400040938800C4CF80918000806280938000AE
:100E500050938B0040938A00BACF809180008860C5
:100E60008093800050938D0040938C00B0CF809190
:100E7000B00080688093B0004093B300A8CF809109
:100E8000B00080628093B0004093B400A0CF809106
:100E90009000806880939000509399004093980050
:100EA00096CF8091900080628093900050939B0039
:100EB00040939A008CCF809190008860809390003E
:100EC00050939D0040939C0082CF8091A000806849
:100ED0008093A0008091A0008F7B8093A00050930E
:100EE000A9004093A80073CF8091A00080628093F6
:100EF000A0005093AB004093AA0069CF8091A0005E
:100F000088608093A0005093AD004093AC005FCF09
:100F100080912001806880932001509329014093A3
:100F2000280155CF80912001806280932001509349
:100F30002B0140932A014BCF809120018860809340
:100F4000200150932D0140932C0141CF20383105D1
:100F50000CF043CF39CFECEDF2E01382128288EE31
:100F600093E0A0E0B0E084839583A683B7838CE20E
:100F700092E09183808385EC90E09587848784EC70
:100F800090E09787868780EC90E0918B808B81EC56
:100F900090E0938B828B82EC90E0958B848B86EC37
:100FA00090E0978B868B118E128E138E148E08957F
:100FB0005058BB27AA270E94F0070C946A090E9488
:100FC0005C0938F00E94630920F039F49F3F19F45E
:100FD00026F40C9459090EF4E095E7FB0C945309A0
:100FE000E92F0E947B0958F3BA1762077307840739
:100FF000950720F079F4A6F50C949D090EF4E09580
:101000000B2EBA2FA02D0B01B90190010C01CA01C2
:10101000A0011124FF27591B99F0593F50F4503E6D
:1010200068F11A16F040A22F232F342F4427585F5F
:10103000F3CF469537952795A795F0405395C9F777
:101040007EF41F16BA0B620B730B840BBAF091502F
:10105000A1F0FF0FBB1F661F771F881FC2F70EC0CE
:10106000BA0F621F731F841F48F4879577956795A1
:10107000B795F7959E3F08F0B0CF9395880F08F08D
:101080009927EE0F9795879508950E942F0908F4E8
:1010900081E008950E945E080C946A090E94630929
:1010A00058F00E945C0940F029F45F3F29F00C944D
:1010B000530951110C949E090C9459090E947B0903
:1010C00068F39923B1F3552391F3951B550BBB2777
:1010D000AA2762177307840738F09F5F5F4F220FBC
:1010E000331F441FAA1FA9F335D00E2E3AF0E0E8B3
:1010F00032D091505040E695001CCAF72BD0FE2FFD
:1011000029D0660F771F881FBB1F26173707480790
:10111000AB07B0E809F0BB0B802DBF01FF27935848
:101120005F4F3AF09E3F510578F00C9453090C94B0
:101130009E095F3FE4F3983ED4F3869577956795D3
:10114000B795F7959F5FC9F7880F911D969587957D
:1011500097F90895E1E0660F771F881FBB1F62179C
:1011600073078407BA0720F0621B730B840BBA0B5A
:10117000EE1F88F7E09508950E94C3086894B111A6
:101180000C949E0908950E94830988F09F5798F057
:10119000B92F9927B751B0F0E1F0660F771F881F7C
:1011A000991F1AF0BA95C9F714C0B13091F00E9496
:1011B0009D09B1E008950C949D09672F782F882729
:1011C000B85F39F0B93FCCF3869577956795B395BD
:1011D000D9F73EF490958095709561957F4F8F4F2C
:1011E0009F4F0895E89409C097FB3EF49095809531
:1011F000709561957F4F8F4F9F4F9923A9F0F92FDD
:1012000096E9BB279395F695879577956795B7955A
:10121000F111F8CFFAF4BB0F11F460FF1BC06F5F40
:101220007F4F8F4F9F4F16C0882311F096E911C052
:10123000772321F09EE8872F762F05C0662371F073
:1012400096E8862F70E060E02AF09A95660F771F87
:10125000881FDAF7880F9695879597F90895990F63
:101260000008550FAA0BE0E8FEEF16161706E80770
:10127000F907C0F012161306E407F50798F0621B91
:10128000730B840B950B39F40A2661F0232B242B66
:10129000252B21F408950A2609F4A140A6958FEF85
:1012A000811D811D089597F99F6780E870E060E0D7
:1012B00008959FEF80EC089500240A9416161706EF
:1012C00018060906089500240A9412161306140637
:1012D00005060895092E0394000C11F4882352F09A
:1012E000BB0F40F4BF2B11F460FF04C06F5F7F4F52
:1012F0008F4F9F4F089557FD9058440F551F59F039
:101300005F3F71F04795880F97FB991F61F09F3FF2
:1013100079F087950895121613061406551FF2CF1B
:101320004695F1DF08C0161617061806991FF1CF6B
:1013300086957105610508940895E894BB27662792
:101340007727CB0197F908950E942F0908F48FEFB2
:1013500008950E94BC090C946A090E945C0938F047
:101360000E94630920F0952311F00C9453090C940A
:10137000590911240C949E090E947B0970F3959FD2
:10138000C1F3950F50E0551F629FF001729FBB277C
:10139000F00DB11D639FAA27F00DB11DAA1F649F18
:1013A0006627B00DA11D661F829F2227B00DA11DCB
:1013B000621F739FB00DA11D621F839FA00D611D51
:1013C000221F749F3327A00D611D231F849F600D72
:1013D000211D822F762F6A2F11249F5750409AF09B
:1013E000F1F088234AF0EE0FFF1FBB1F661F771F27
:1013F000881F91505040A9F79E3F510580F00C94F2
:1014000053090C949E095F3FE4F3983ED4F386950C
:1014100077956795B795F795E7959F5FC1F7FE2B91
:10142000880F911D9695879597F908950E942F0929
:10143000880B990B0895A1E21A2EAA1BBB1BFD0174
:101440000DC0AA1FBB1FEE1FFF1FA217B307E407A3
:10145000F50720F0A21BB30BE40BF50B661F771FFB
:10146000881F991F1A9469F76095709580959095DB
:101470009B01AC01BD01CF010895EE0FFF1F881F36
:0E1480008BBF0790F691E02D1994F894FFCFE2
:10148E00CDCCCC3DCDCCCC3DCDCCCC3DCDCCCC3DC6
:10149E00CDCCCC3DCDCCCC3DCDCCCC3DCDCCCC3DB6
:1014AE00CDCCCC3DCDCCCC3D000000009B02050246
:1014BE003202E8026302410255026E616E00696EED
:0C14CE0066006F7666002C000D0A00001E
:00000001FF
